:020000040800F2
:1000000000000220C10300081104000811040008C8
:100010001104000811040008110400080000000089
:1000200000000000000000000000000011040008B3
:100030001104000800000000110400081104000869
:10004000110400081104000811040008110400083C
:10005000110400081104000811040008110400082C
:10006000110400081104000811040008110400081C
:10007000110400081104000811040008110400080C
:100080001104000811040008110400080000000019
:100090000000000000000000000000001104000843
:1000A00011040008110400081104000811040008DC
:1000B00011040008110400081104000811040008CC
:1000C00011040008110400081104000811040008BC
:1000D00011040008110400081104000800000000C9
:1000E00011040008110400081104000800000000B9
:1000F00000000000000000000000000011040008E3
:100100000000000011040008110400081104000898
:1001100000000000000000000000000000000000DF
:10012000110400081104000811040008110400085B
:1001300011040008000000000000000000000000A2
:100140000000000000000000000000001104000892
:10015000110400081104000811040008110400082B
:100160001104000811040008000000000000000055
:10017000000000000000000000000000000000007F
:100180000000000011040008000000000000000052
:0801900011040008110400082D
:1001980010B5054C237833B9044B13B10448AFF3B9
:1001A80000800123237010BD04000020000000001F
:1001B8005C04000808B5034B1BB103490348AFF3BF
:1001C800008008BD00000000080000205C04000852
:1001D800034AD2F8883043F47003C2F88830704775
:1001E80000ED00E082B00023019302E0019B01339F
:1001F8000193019B8342F9D302B0704710B41F4AA0
:10020800136B43F001031363022218E01C4B1C68B4
:100218004FEA420C012000FA0CF10C431C605C68A8
:10022800904024EA00005860986801439960D968B2
:10023800032000FA0CF021EA0001D9600132072AF4
:10024800E4DD0F4B1A6822F003021A60DA6822F024
:100258000302DA60DA6842F00202DA601A6822F011
:100268000C021A60DA6822F00C02DA60DA6842F0EE
:100278000802DA605DF8044B704700BF003802409E
:1002880000000240002302E030BC704701338B427B
:1002980013D21A18052AF9D830B4084D6C690232FD
:1002A8004FF0010C0CFA02F222436A6101338B42CF
:1002B800EAD21A18052AF9D8EFE770470000024079
:1002C800024A536923F0FC0353617047000002405F
:1002D80038B50D4B1B68052B0FD80B4C20680B4D00
:1002E8002968FFF7CFFF2A6823681344236023682F
:1002F800062B07D90622226004E0FFF7E1FF024B34
:1003080000221A6038BD00BF28000020000000202D
:1003180008B51F4B1B6913F0010F0BD11D4B0022B1
:100328001A601B4B1B6913F0020F1ED11A4B0022D7
:100338001A6008BD42F21070FFF754FF144B1B6996
:1003480013F0010FEDD0134B1B68002BE9D1114BB3
:1003580001221A60114B1A6801321A601B68062BB9
:10036800DFD90E4B01221A60DBE742F21070FFF76B
:1003780039FF074B1B6913F0020FDAD0064B1B68D5
:10038800002BD6D1044B01221A60FFF7A1FFD0E75A
:10039800000002402400002020000020000000206F
:1003A80008B5FFF72BFFFFF78BFFFFF7B1FF4FF4FF
:1003B8007A70FFF717FFF8E7DFF834D00D480E49D9
:1003C8000E4A002302E0D458C4500433C4188C42A7
:1003D800F9D30B4A0B4C002301E013600432A2420C
:1003E800FBD3FFF7F5FE00F011F8FFF7D9FF7047D0
:1003F8000000022000000020040000207C04000807
:10040800040000202C000020FEE7000070B50D4D10
:100418000D4C641BA4100026A64209D10B4D0C4CB0
:1004280000F018F8641BA4100026A64205D170BD80
:1004380055F8043B98470136EEE755F8043B9847D2
:100448000136F2E774040008740400087404000814
:1004580078040008F8B500BFF8BC08BC9E46704791
:0C046800F8B500BFF8BC08BC9E46704709
:04047400BD010008BE
:0404780099010008DE
:04047C00010000007B
:04000005080003C12B
:00000001FF
