:020000040800F2
:1000000000000220ED0400083D0500083D05000841
:100010003D0500083D0500083D0500080000000002
:100020000000000000000000000000003D05000886
:100030003D050008000000003D0500083D050008E2
:100040003D0500083D0500083D0500083D05000888
:100050003D0500083D0500083D0500083D05000878
:100060003D0500083D0500083D0500083D05000868
:100070003D0500083D0500083D0500083D05000858
:100080003D0500083D0500083D0500080000000092
:100090000000000000000000000000003D05000816
:1000A0003D0500083D0500083D0500083D05000828
:1000B0003D0500083D0500083D0500083D05000818
:1000C0003D0500083D0500083D0500083D05000808
:1000D0003D0500083D0500083D0500080000000042
:1000E0003D0500083D0500083D0500080000000032
:1000F0000000000000000000000000003D050008B6
:10010000000000003D0500083D0500083D05000811
:1001100000000000000000000000000000000000DF
:100120003D0500083D0500083D0500083D050008A7
:100130003D05000800000000000000000000000075
:100140000000000000000000000000003D05000865
:100150003D0500083D0500083D0500083D05000877
:100160003D0500083D0500080000000000000000FB
:10017000000000000000000000000000000000007F
:10018000000000003D050008000000000000000025
:080190003D0500083D050008D3
:1001980010B5054C237833B9044B13B10448AFF3B9
:1001A80000800123237010BD1C0000200000000007
:1001B8008805000808B5034B1BB103490348AFF392
:1001C800008008BD0000000020000020880500080D
:1001D800034AD2F8883043F47003C2F88830704775
:1001E80000ED00E010B41F4A136B43F001031363E2
:1001F800022218E01C4B1C684FEA420C012000FA4E
:100208000CF10C431C605C68904024EA00005860C4
:10021800986801439960D968032000FA0CF021EA34
:100228000001D9600132072AE4DD0F4B1A6822F079
:1002380003021A60DA6822F00302DA60DA6842F030
:100248000202DA601A6822F00C021A60DA6822F0F8
:100258000C02DA60DA6842F00802DA605DF8044BF2
:10026800704700BF003802400000024082B00023FF
:10027800019302E0019B01330193019B8342F9D36F
:1002880002B0704739B108494B69023001228240F7
:1002980013434B61704704494B6902300122824085
:1002A80023EA02034B6170470000024010B50024A6
:1002B80004E000212046FFF7E5FF0134052CF8DDB6
:1002C80010BD0000024B186900F00100704700BF24
:1002D80000000240024B186900F00200704700BF9E
:1002E8000000024038B5FFF7EDFF034670B12B4A16
:1002F8001268002A31D12A4A0121116000222949B5
:100308000A6029490A60254A136038BD234A1268E1
:100318000AB3234A1268C2B1224A1268B2F57A7F38
:1003280013D2214A126882B9204D2A68204C54F809
:1003380022202049A1FB020121F0010000EB51011C
:10034800521A2968013244F82120002214490A600F
:1003580015490A60D7E70028D5D0114A1268002A43
:10036800D1D0104A1168013111601268B2F57A7F54
:10037800C9D30D4A1268002AC5D10C480168013159
:10038800A2F15532A2FB0142920802EB4202A1EB14
:1003980042020260044A01211160B4E73C000020D7
:1003A80044000020480000204000002050000020A9
:1003B80000000020ABAAAAAA08B5FFF78BFF0246E7
:1003C800A0B1114B1B688BB9104B186810490B680A
:1003D80003440B600F4B1B685BB90B68052B05D9F1
:1003E8000C4B012119600A4B00211960064B1A6059
:1003F80008BD074B1B68052BF8D9002305490B607E
:1004080003490B60F2E700BF380000201800002005
:10041800580000205C00002010B5002421E04FF4B3
:10042800FA721E4B1B68B3FBF2F102FB1133B3EBFC
:10043800520F34BF01210021194B00221A60194BB9
:100448001B68E3B9184B1B689C422CBF002301238F
:10045800134A1360124B1B68D3B12046FFF712FFF3
:100468000134052C19DC114B53F82430022BD6D05B
:10047800032B01D16422D4E74FF47A72D1E70A4BF7
:100488001B689C4234BF00230123054A1360E1E73F
:1004980000212046FFF7F6FEE2E710BD4C000020E1
:1004A800540000205C0000205800002000000020BC
:1004B80008B5FFF717FFFFF77FFF034A13680133FB
:1004C8001360FFF7A9FF08BD4C00002008B5FFF72F
:1004D80089FEFFF7EBFEFFF7EBFF4FF47A70FFF7AB
:1004E800C5FEF8E7DFF834D00D480E490E4A002360
:1004F80002E0D458C4500433C4188C42F9D30B4AD0
:100508000B4C002301E013600432A242FBD3FFF737
:100518005FFE00F011F8FFF7D9FF704700000220D6
:10052800000000201C000020A80500081C00002076
:1005380060000020FEE7000070B50D4D0D4C641BF7
:10054800A4100026A64209D10B4D0C4C00F018F857
:10055800641BA4100026A64205D170BD55F8043BC3
:1005680098470136EEE755F8043B98470136F2E71D
:10057800A0050008A0050008A0050008A4050008BB
:10058800F8B500BFF8BC08BC9E467047F8B500BF78
:08059800F8BC08BC9E46704748
:0405A000BD01000891
:0405A40099010008B1
:1005A800010000000100000001000000010000003F
:0C05B80001000000010000000100000034
:04000005080004EDFE
:00000001FF
