:020000040800F2
:100000000000022065040008B5040008B5040008DB
:10001000B5040008B5040008B5040008000000009D
:10002000000000000000000000000000B50400080F
:10003000B504000800000000B5040008B50400087D
:10004000B5040008B5040008B5040008B5040008AC
:10005000B5040008B5040008B5040008B50400089C
:10006000B5040008B5040008B5040008B50400088C
:10007000B5040008B5040008B5040008B50400087C
:10008000B5040008B5040008B5040008000000002D
:10009000000000000000000000000000B50400089F
:1000A000B5040008B5040008B5040008B50400084C
:1000B000B5040008B5040008B5040008B50400083C
:1000C000B5040008B5040008B5040008B50400082C
:1000D000B5040008B5040008B504000800000000DD
:1000E000B5040008B5040008B504000800000000CD
:1000F000000000000000000000000000B50400083F
:1001000000000000B5040008B5040008B5040008AC
:1001100000000000000000000000000000000000DF
:10012000B5040008B5040008B5040008B5040008CB
:10013000B5040008000000000000000000000000FE
:10014000000000000000000000000000B5040008EE
:10015000B5040008B5040008B5040008B50400089B
:10016000B5040008B504000800000000000000000D
:10017000000000000000000000000000000000007F
:1001800000000000B50400080000000000000000AE
:08019000B5040008B5040008E5
:1001980010B5054C237833B9044B13B10448AFF3B9
:1001A80000800123237010BD04000020000000001F
:1001B8000005000808B5034B1BB103490348AFF31A
:1001C800008008BD000000000800002000050008AD
:1001D800034AD2F8883043F47003C2F88830704775
:1001E80000ED00E010B41F4A136B43F001031363E2
:1001F800022218E01C4B1C684FEA420C012000FA4E
:100208000CF10C431C605C68904024EA00005860C4
:10021800986801439960D968032000FA0CF021EA34
:100228000001D9600132072AE4DD0F4B1A6822F079
:1002380003021A60DA6822F00302DA60DA6842F030
:100248000202DA601A6822F00C021A60DA6822F0F8
:100258000C02DA60DA6842F00802DA605DF8044BF2
:10026800704700BF003802400000024082B00023FF
:10027800019302E0019B01330193019B8342F9D36F
:1002880002B0704739B108494B69023001228240F7
:1002980013434B61704704494B6902300122824085
:1002A80023EA02034B61704700000240024B1869C1
:1002B80000F00100704700BF00000240024B1869BF
:1002C80000F00200704700BF0000024010B5002493
:1002D80004E000212046FFF7D5FF0134052CF8DDA6
:1002E80010BD10B5002404E001212046FFF7CAFF25
:1002F8000134052CF8DD10BD054B1A6801321A606F
:100308001B68062B02D9024B01221A60704700BFF6
:100318000000002010B52C4B1B68062B04D02B4B7B
:100328001C688CB1002430E0294B1B682BB1FFF707
:10033800CDFF274B00221A6025E0FFF7D2FF244BA0
:1003480001221A601FE001341F4B1B68A3420BD91E
:10035800204B1B682344052BF5D81E4B1868012138
:100368002044FFF78FFFEEE7174B1968194B1A68FF
:100378000A441A601B68052B05D9144B01221A6020
:10038800144B00221A6010BD01340F4B1B68A342A6
:100398000BD9104B1B682344052BF5D80D4B186857
:1003A80000212044FFF76EFFEEE7074B1968094B61
:1003B8001A680A441A601B68052BE4D90023034A0B
:1003C8001360044A1360DEE70000002030000020BC
:1003D800200000202C00002008B5FFF767FF48B96F
:1003E800164B00221A60FFF769FFA8B9144B0022C8
:1003F8001A6008BD42F21070FFF738FFFFF756FF8A
:100408000028F0D00D4B1B68002BECD10B4B0122C0
:100418001A60FFF771FFE6E742F21070FFF726FF58
:10042800FFF74CFF0028E4D0054B1B68002BE0D1F8
:10043800034B01221A60FFF76DFFDAE7280000205E
:100448002400002008B5FFF7CDFEFFF73FFFFFF7B8
:10045800C3FF4FF47A70FFF709FFF8E7DFF834D0ED
:100468000D480E490E4A002302E0D458C450043304
:10047800C4188C42F9D30B4A0B4C002301E01360DB
:100488000432A242FBD3FFF7A3FE00F011F8FFF7F6
:10049800D9FF70470000022000000020040000205F
:1004A800200500080400002034000020FEE70000BA
:1004B80070B50D4D0D4C641BA4100026A64209D141
:1004C8000B4D0C4C00F018F8641BA4100026A64233
:1004D80005D170BD55F8043B98470136EEE755F84D
:1004E800043B98470136F2E718050008180500088C
:1004F800180500081C050008F8B500BFF8BC08BCC2
:100508009E467047F8B500BFF8BC08BC9E467047C9
:04051800BD01000819
:04051C009901000839
:0405200001000000D6
:040000050800046586
:00000001FF
