:020000040800F2
:1000000000000220DD0300082D0400082D04000874
:100010002D0400082D0400082D0400080000000035
:100020000000000000000000000000002D04000897
:100030002D040008000000002D0400082D04000815
:100040002D0400082D0400082D0400082D040008CC
:100050002D0400082D0400082D0400082D040008BC
:100060002D0400082D0400082D0400082D040008AC
:100070002D0400082D0400082D0400082D0400089C
:100080002D0400082D0400082D04000800000000C5
:100090000000000000000000000000002D04000827
:1000A0002D0400082D0400082D0400082D0400086C
:1000B0002D0400082D0400082D0400082D0400085C
:1000C0002D0400082D0400082D0400082D0400084C
:1000D0002D0400082D0400082D0400080000000075
:1000E0002D0400082D0400082D0400080000000065
:1000F0000000000000000000000000002D040008C7
:10010000000000002D0400082D0400082D04000844
:1001100000000000000000000000000000000000DF
:100120002D0400082D0400082D0400082D040008EB
:100130002D04000800000000000000000000000086
:100140000000000000000000000000002D04000876
:100150002D0400082D0400082D0400082D040008BB
:100160002D0400082D04000800000000000000001D
:10017000000000000000000000000000000000007F
:10018000000000002D040008000000000000000036
:080190002D0400082D040008F5
:1001980010B5054C237833B9044B13B10448AFF3B9
:1001A80000800123237010BD04000020000000001F
:1001B8007804000808B5034B1BB103490348AFF3A3
:1001C800008008BD00000000080000207804000836
:1001D800034AD2F8883043F47003C2F88830704775
:1001E80000ED00E010B4204AD2F8303843F00103A3
:1001F800C2F83038022218E01C4B1C684FEA420C47
:10020800012000FA0CF10C431C605C68904024EA61
:1002180000005860986801439960D968032000FA83
:100228000CF021EA0001D9600132072AE4DD0F4B06
:100238001A6822F003021A60DA6822F00302DA6010
:10024800DA6842F00202DA601A6822F00C021A60D8
:10025800DA6822F00C02DA60DA6842F00802DA6042
:100268005DF8044B704700BF0030024000000240B8
:1002780082B00023019302E0019B01330193019BAB
:100288008342F9D302B07047002302E030BC7047C4
:1002980001338B4213D21A18052AF9D830B4084D05
:1002A8006C6902324FF0010C0CFA02F222436A61C7
:1002B80001338B42EAD21A18052AF9D8EFE77047BA
:1002C80000000240024A536923F0FC03536170475F
:1002D80000000240024B186900F00100704700BF9F
:1002E80000000240024B186900F00200704700BF8E
:1002F80000000240054B1A6801321A601B68062B81
:1003080002D9024B01221A60704700BF000000208A
:1003180038B50D4B1B68052B0FD80B4C20680B4DBF
:100328002968FFF7B1FF2A6823681344236023680C
:10033800062B07D90622226004E0FFF7C3FF024B11
:1003480000221A6038BD00BF2800002000000020ED
:1003580008B5FFF7BFFF48B9164B00221A60FFF730
:10036800C1FFA8B9144B00221A6008BD42F21070F0
:10037800FFF77EFFFFF7AEFF0028F0D00D4B1B689C
:10038800002BECD10B4B01221A60FFF7B3FFE6E715
:1003980042F21070FFF76CFFFFF7A4FF0028E4D0CB
:1003A800054B1B68002BE0D1034B01221A60FFF7B5
:1003B800AFFFDAE7240000202000002008B5FFF78F
:1003C80011FFFFF77FFFFFF7C3FF4FF47A70FFF7C6
:1003D8004FFFF8E7DFF834D00D480E490E4A0023E6
:1003E80002E0D458C4500433C4188C42F9D30B4AE1
:1003F8000B4C002301E013600432A242FBD3FFF749
:10040800E7FE00F011F8FFF7D9FF7047000002205F
:1004180000000020040000209804000804000020C8
:100428002C000020FEE7000070B50D4D0D4C641B3C
:10043800A4100026A64209D10B4D0C4C00F018F868
:10044800641BA4100026A64205D170BD55F8043BD4
:1004580098470136EEE755F8043B98470136F2E72E
:100468009004000890040008900400089404000810
:10047800F8B500BFF8BC08BC9E467047F8B500BF89
:08048800F8BC08BC9E46704759
:04049000BD010008A2
:0404940099010008C2
:04049800010000005F
:04000005080003DD0F
:00000001FF
