:020000040800F2
:10000000000002201D0200086D0200086D020008B9
:100010006D0200086D0200086D020008000000007B
:100020000000000000000000000000006D02000859
:100030006D020008000000006D0200086D0200085B
:100040006D0200086D0200086D0200086D020008D4
:100050006D0200086D0200086D0200086D020008C4
:100060006D0200086D0200086D0200086D020008B4
:100070006D0200086D0200086D0200086D020008A4
:100080006D0200086D0200086D020008000000000B
:100090000000000000000000000000006D020008E9
:1000A0006D0200086D0200086D0200086D02000874
:1000B0006D0200086D0200086D0200086D02000864
:1000C0006D0200086D0200086D0200086D02000854
:1000D0006D0200086D0200086D02000800000000BB
:1000E0006D0200086D0200086D02000800000000AB
:1000F0000000000000000000000000006D02000889
:10010000000000006D0200086D0200086D0200088A
:1001100000000000000000000000000000000000DF
:100120006D0200086D0200086D0200086D020008F3
:100130006D02000800000000000000000000000048
:100140000000000000000000000000006D02000838
:100150006D0200086D0200086D0200086D020008C3
:100160006D0200086D0200080000000000000000A1
:10017000000000000000000000000000000000007F
:10018000000000006D0200080000000000000000F8
:080190006D0200086D02000879
:1001980010B5054C237833B9044B13B10448AFF3B9
:1001A80000800123237010BD000000200000000023
:1001B800B802000808B5034B1BB103490348AFF365
:1001C800008008BD0000000004000020B8020008FC
:1001D800034AD2F8883043F47003C2F88830704775
:1001E80000ED00E0094A136B43F004031363084B66
:1001F8001A6842F080621A609A6942F400529A6161
:10020800034A936943F000539361F9E700380240C9
:1002180000080240DFF834D00D480E490E4A00238A
:1002280002E0D458C4500433C4188C42F9D30B4AA2
:100238000B4C002301E013600432A242FBD3FFF70A
:10024800C7FF00F011F8FFF7CDFF7047000002204C
:100258000000002000000020D80200080000002054
:100268001C000020FEE7000070B50D4D0D4C641B0E
:10027800A4100026A64209D10B4D0C4C00F018F82A
:10028800641BA4100026A64205D170BD55F8043B96
:1002980098470136EEE755F8043B98470136F2E7F0
:1002A800D0020008D0020008D0020008D4020008DA
:1002B800F8B500BFF8BC08BC9E467047F8B500BF4B
:0802C800F8BC08BC9E4670471B
:0402D000BD01000864
:0402D4009901000884
:040000050800021DD0
:00000001FF
