:020000040800F2
:10000000000002207D040008CD040008CD04000893
:10001000CD040008CD040008CD0400080000000055
:10002000000000000000000000000000CD040008F7
:10003000CD04000800000000CD040008CD04000835
:10004000CD040008CD040008CD040008CD0400084C
:10005000CD040008CD040008CD040008CD0400083C
:10006000CD040008CD040008CD040008CD0400082C
:10007000CD040008CD040008CD040008CD0400081C
:10008000CD040008CD040008CD04000800000000E5
:10009000000000000000000000000000CD04000887
:1000A000CD040008CD040008CD040008CD040008EC
:1000B000CD040008CD040008CD040008CD040008DC
:1000C000CD040008CD040008CD040008CD040008CC
:1000D000CD040008CD040008CD0400080000000095
:1000E000CD040008CD040008CD0400080000000085
:1000F000000000000000000000000000CD04000827
:1001000000000000CD040008CD040008CD04000864
:1001100000000000000000000000000000000000DF
:10012000CD040008CD040008CD040008CD0400086B
:10013000CD040008000000000000000000000000E6
:10014000000000000000000000000000CD040008D6
:10015000CD040008CD040008CD040008CD0400083B
:10016000CD040008CD0400080000000000000000DD
:10017000000000000000000000000000000000007F
:1001800000000000CD040008000000000000000096
:08019000CD040008CD040008B5
:1001980010B5054C237833B9044B13B10448AFF3B9
:1001A80000800123237010BD1C0000200000000007
:1001B8001805000808B5034B1BB103490348AFF302
:1001C800008008BD0000000020000020180500087D
:1001D800034AD2F8883043F47003C2F88830704775
:1001E80000ED00E010B41F4A136B43F001031363E2
:1001F800022218E01C4B1C684FEA420C012000FA4E
:100208000CF10C431C605C68904024EA00005860C4
:10021800986801439960D968032000FA0CF021EA34
:100228000001D9600132072AE4DD0F4B1A6822F079
:1002380003021A60DA6822F00302DA60DA6842F030
:100248000202DA601A6822F00C021A60DA6822F0F8
:100258000C02DA60DA6842F00802DA605DF8044BF2
:10026800704700BF003802400000024082B00023FF
:10027800019302E0019B01330193019B8342F9D36F
:1002880002B0704739B108494B69023001228240F7
:1002980013434B61704704494B6902300122824085
:1002A80023EA02034B6170470000024010B50024A6
:1002B80004E000212046FFF7E5FF0134052CF8DDB6
:1002C80010BD0000024B186900F00100704700BF24
:1002D80000000240024B186900F00200704700BF9E
:1002E8000000024038B5FFF7EDFF034670B12B4A16
:1002F8001268002A31D12A4A0121116000222949B5
:100308000A6029490A60254A136038BD234A1268E1
:100318000AB3234A1268C2B1224A1268B2F57A7F38
:1003280013D2214A126882B9204D2A68204C54F809
:1003380022202049A1FB020121F0010000EB51011C
:10034800521A2968013244F82120002214490A600F
:1003580015490A60D7E70028D5D0114A1268002A43
:10036800D1D0104A1168013111601268B2F57A7F54
:10037800C9D30D4A1268002AC5D10C480168013159
:10038800A2F15532A2FB0142920802EB4202A1EB14
:1003980042020260044A01211160B4E73C000020D7
:1003A80044000020480000204000002050000020A9
:1003B80004000020ABAAAAAA10B5FFF78BFF0446D9
:1003C80050B1084B1B683BB9074A1368B3FA83F36B
:1003D8005B091360136813B1024B1C6010BDFFF773
:1003E80065FFF9E73800002000000020134B1B6868
:1003F80013B310B5002410E04FF4FA72104B1B68C9
:10040800B3FBF2F102FB1133B3EB520F34BF0121FE
:1004180000212046FFF736FF0134052C0BDC094B81
:1004280053F82430022BE7D0032B01D16422E5E7EF
:100438004FF47A72E2E710BD704700BF0000002059
:100448004C0000200400002008B5FFF7CBFEFFF7A2
:100458002DFFFFF747FFFFF7AFFF054A136801338A
:100468001360FFF7C3FF4FF47A70FFF7FFFEF0E762
:100478004C000020DFF834D00D480E490E4A002306
:1004880002E0D458C4500433C4188C42F9D30B4A40
:100498000B4C002301E013600432A242FBD3FFF7A8
:1004A80097FE00F011F8FFF7CFFF70470000022019
:1004B800000000201C000020380500081C00002057
:1004C80054000020FEE7000070B50D4D0D4C641B74
:1004D800A4100026A64209D10B4D0C4C00F018F8C8
:1004E800641BA4100026A64205D170BD55F8043B34
:1004F80098470136EEE755F8043B98470136F2E78E
:1005080030050008300500083005000834050008EB
:10051800F8B500BFF8BC08BC9E467047F8B500BFE8
:08052800F8BC08BC9E467047B8
:04053000BD01000801
:040534009901000821
:1005380001000000010000000100000001000000AF
:0C054800010000000100000001000000A4
:040000050800047D6E
:00000001FF
